{
  "_format": "hh-sol-artifact-1",
  "contractName": "AkibaRaffleV3",
  "sourceName": "contracts/MiniRaffleV3.sol",
  "abi": [
    {
      "inputs": [],
      "name": "Unauthorized",
      "type": "error"
    },
    {
      "anonymous": false,
      "inputs": [
        {
          "indexed": false,
          "internalType": "address",
          "name": "previousAdmin",
          "type": "address"
        },
        {
          "indexed": false,
          "internalType": "address",
          "name": "newAdmin",
          "type": "address"
        }
      ],
      "name": "AdminChanged",
      "type": "event"
    },
    {
      "anonymous": false,
      "inputs": [
        {
          "indexed": true,
          "internalType": "address",
          "name": "beacon",
          "type": "address"
        }
      ],
      "name": "BeaconUpgraded",
      "type": "event"
    },
    {
      "anonymous": false,
      "inputs": [
        {
          "indexed": false,
          "internalType": "uint8",
          "name": "version",
          "type": "uint8"
        }
      ],
      "name": "Initialized",
      "type": "event"
    },
    {
      "anonymous": false,
      "inputs": [
        {
          "indexed": true,
          "internalType": "uint256",
          "name": "roundId",
          "type": "uint256"
        },
        {
          "indexed": false,
          "internalType": "address[]",
          "name": "winners",
          "type": "address[]"
        },
        {
          "indexed": false,
          "internalType": "uint256[]",
          "name": "amounts",
          "type": "uint256[]"
        }
      ],
      "name": "MultiWinnersSelected",
      "type": "event"
    },
    {
      "anonymous": false,
      "inputs": [
        {
          "indexed": true,
          "internalType": "address",
          "name": "previousOwner",
          "type": "address"
        },
        {
          "indexed": true,
          "internalType": "address",
          "name": "newOwner",
          "type": "address"
        }
      ],
      "name": "OwnershipTransferred",
      "type": "event"
    },
    {
      "anonymous": false,
      "inputs": [
        {
          "indexed": true,
          "internalType": "uint256",
          "name": "roundId",
          "type": "uint256"
        },
        {
          "indexed": true,
          "internalType": "address",
          "name": "participant",
          "type": "address"
        },
        {
          "indexed": false,
          "internalType": "uint256",
          "name": "tickets",
          "type": "uint256"
        }
      ],
      "name": "ParticipantJoined",
      "type": "event"
    },
    {
      "anonymous": false,
      "inputs": [
        {
          "indexed": true,
          "internalType": "uint256",
          "name": "roundId",
          "type": "uint256"
        }
      ],
      "name": "RaffleClosed",
      "type": "event"
    },
    {
      "anonymous": false,
      "inputs": [
        {
          "indexed": true,
          "internalType": "uint256",
          "name": "roundId",
          "type": "uint256"
        },
        {
          "indexed": false,
          "internalType": "uint256",
          "name": "witnetBlock",
          "type": "uint256"
        }
      ],
      "name": "RandomnessRequested",
      "type": "event"
    },
    {
      "anonymous": false,
      "inputs": [
        {
          "indexed": true,
          "internalType": "uint256",
          "name": "roundId",
          "type": "uint256"
        },
        {
          "indexed": false,
          "internalType": "uint256",
          "name": "startTime",
          "type": "uint256"
        },
        {
          "indexed": false,
          "internalType": "uint256",
          "name": "endTime",
          "type": "uint256"
        },
        {
          "indexed": false,
          "internalType": "uint256",
          "name": "rewardPool",
          "type": "uint256"
        },
        {
          "indexed": false,
          "internalType": "contract IERC20",
          "name": "rewardToken",
          "type": "address"
        },
        {
          "indexed": false,
          "internalType": "uint256",
          "name": "maxTickets",
          "type": "uint256"
        },
        {
          "indexed": false,
          "internalType": "uint256",
          "name": "ticketCostPoints",
          "type": "uint256"
        },
        {
          "indexed": false,
          "internalType": "uint8",
          "name": "roundType",
          "type": "uint8"
        }
      ],
      "name": "RoundCreated",
      "type": "event"
    },
    {
      "anonymous": false,
      "inputs": [
        {
          "indexed": true,
          "internalType": "address",
          "name": "implementation",
          "type": "address"
        }
      ],
      "name": "Upgraded",
      "type": "event"
    },
    {
      "anonymous": false,
      "inputs": [
        {
          "indexed": true,
          "internalType": "uint256",
          "name": "roundId",
          "type": "uint256"
        },
        {
          "indexed": false,
          "internalType": "address",
          "name": "winner",
          "type": "address"
        },
        {
          "indexed": false,
          "internalType": "uint256",
          "name": "reward",
          "type": "uint256"
        }
      ],
      "name": "WinnerSelected",
      "type": "event"
    },
    {
      "anonymous": false,
      "inputs": [
        {
          "indexed": true,
          "internalType": "address",
          "name": "token",
          "type": "address"
        },
        {
          "indexed": true,
          "internalType": "address",
          "name": "to",
          "type": "address"
        },
        {
          "indexed": false,
          "internalType": "uint256",
          "name": "amount",
          "type": "uint256"
        }
      ],
      "name": "Withdraw",
      "type": "event"
    },
    {
      "inputs": [],
      "name": "RNG",
      "outputs": [
        {
          "internalType": "contract IWitnetRandomness",
          "name": "",
          "type": "address"
        }
      ],
      "stateMutability": "view",
      "type": "function"
    },
    {
      "inputs": [],
      "name": "cUSD",
      "outputs": [
        {
          "internalType": "contract IERC20",
          "name": "",
          "type": "address"
        }
      ],
      "stateMutability": "view",
      "type": "function"
    },
    {
      "inputs": [
        {
          "internalType": "uint256",
          "name": "_roundId",
          "type": "uint256"
        }
      ],
      "name": "closeRaffle",
      "outputs": [],
      "stateMutability": "nonpayable",
      "type": "function"
    },
    {
      "inputs": [
        {
          "internalType": "uint256",
          "name": "_startTime",
          "type": "uint256"
        },
        {
          "internalType": "uint256",
          "name": "_duration",
          "type": "uint256"
        },
        {
          "internalType": "uint32",
          "name": "_maxTickets",
          "type": "uint32"
        },
        {
          "internalType": "contract IERC20",
          "name": "_token",
          "type": "address"
        },
        {
          "internalType": "uint8",
          "name": "_raffleType",
          "type": "uint8"
        },
        {
          "internalType": "uint256",
          "name": "_rewardPool",
          "type": "uint256"
        },
        {
          "internalType": "uint256",
          "name": "_ticketCostPoints",
          "type": "uint256"
        },
        {
          "internalType": "string",
          "name": "_rewardURI",
          "type": "string"
        }
      ],
      "name": "createRaffleRound",
      "outputs": [],
      "stateMutability": "nonpayable",
      "type": "function"
    },
    {
      "inputs": [
        {
          "internalType": "uint256",
          "name": "_roundId",
          "type": "uint256"
        }
      ],
      "name": "drawWinner",
      "outputs": [],
      "stateMutability": "nonpayable",
      "type": "function"
    },
    {
      "inputs": [
        {
          "internalType": "uint256",
          "name": "_roundId",
          "type": "uint256"
        }
      ],
      "name": "getActiveRound",
      "outputs": [
        {
          "internalType": "uint256",
          "name": "roundId",
          "type": "uint256"
        },
        {
          "internalType": "uint256",
          "name": "startTime",
          "type": "uint256"
        },
        {
          "internalType": "uint256",
          "name": "endTime",
          "type": "uint256"
        },
        {
          "internalType": "uint32",
          "name": "maxTickets",
          "type": "uint32"
        },
        {
          "internalType": "uint32",
          "name": "totalTickets",
          "type": "uint32"
        },
        {
          "internalType": "contract IERC20",
          "name": "rewardToken",
          "type": "address"
        },
        {
          "internalType": "uint256",
          "name": "rewardPool",
          "type": "uint256"
        },
        {
          "internalType": "uint256",
          "name": "ticketCostPoints",
          "type": "uint256"
        },
        {
          "internalType": "bool",
          "name": "winnerSelected",
          "type": "bool"
        }
      ],
      "stateMutability": "view",
      "type": "function"
    },
    {
      "inputs": [
        {
          "internalType": "address",
          "name": "_miniPoints",
          "type": "address"
        },
        {
          "internalType": "address",
          "name": "_cUSD",
          "type": "address"
        },
        {
          "internalType": "address",
          "name": "_usdt",
          "type": "address"
        },
        {
          "internalType": "address",
          "name": "prize",
          "type": "address"
        },
        {
          "internalType": "address",
          "name": "_owner",
          "type": "address"
        }
      ],
      "name": "initialize",
      "outputs": [],
      "stateMutability": "nonpayable",
      "type": "function"
    },
    {
      "inputs": [
        {
          "internalType": "uint256",
          "name": "_roundId",
          "type": "uint256"
        },
        {
          "internalType": "uint32",
          "name": "_ticketCount",
          "type": "uint32"
        }
      ],
      "name": "joinRaffle",
      "outputs": [],
      "stateMutability": "nonpayable",
      "type": "function"
    },
    {
      "inputs": [],
      "name": "miles",
      "outputs": [
        {
          "internalType": "contract IERC20",
          "name": "",
          "type": "address"
        }
      ],
      "stateMutability": "view",
      "type": "function"
    },
    {
      "inputs": [],
      "name": "miniPoints",
      "outputs": [
        {
          "internalType": "contract IMiniPoints",
          "name": "",
          "type": "address"
        }
      ],
      "stateMutability": "view",
      "type": "function"
    },
    {
      "inputs": [
        {
          "internalType": "address",
          "name": "",
          "type": "address"
        }
      ],
      "name": "minters",
      "outputs": [
        {
          "internalType": "bool",
          "name": "",
          "type": "bool"
        }
      ],
      "stateMutability": "view",
      "type": "function"
    },
    {
      "inputs": [],
      "name": "owner",
      "outputs": [
        {
          "internalType": "address",
          "name": "",
          "type": "address"
        }
      ],
      "stateMutability": "view",
      "type": "function"
    },
    {
      "inputs": [
        {
          "internalType": "uint256",
          "name": "_roundId",
          "type": "uint256"
        }
      ],
      "name": "participantsOf",
      "outputs": [
        {
          "internalType": "address[]",
          "name": "",
          "type": "address[]"
        }
      ],
      "stateMutability": "view",
      "type": "function"
    },
    {
      "inputs": [],
      "name": "prizeNFT",
      "outputs": [
        {
          "internalType": "address",
          "name": "",
          "type": "address"
        }
      ],
      "stateMutability": "view",
      "type": "function"
    },
    {
      "inputs": [],
      "name": "proxiableUUID",
      "outputs": [
        {
          "internalType": "bytes32",
          "name": "",
          "type": "bytes32"
        }
      ],
      "stateMutability": "view",
      "type": "function"
    },
    {
      "inputs": [
        {
          "internalType": "uint256",
          "name": "_roundId",
          "type": "uint256"
        }
      ],
      "name": "requestRoundRandomness",
      "outputs": [],
      "stateMutability": "payable",
      "type": "function"
    },
    {
      "inputs": [],
      "name": "roundIdCounter",
      "outputs": [
        {
          "internalType": "uint256",
          "name": "",
          "type": "uint256"
        }
      ],
      "stateMutability": "view",
      "type": "function"
    },
    {
      "inputs": [
        {
          "internalType": "address",
          "name": "who",
          "type": "address"
        },
        {
          "internalType": "bool",
          "name": "enabled",
          "type": "bool"
        }
      ],
      "name": "setMinter",
      "outputs": [],
      "stateMutability": "nonpayable",
      "type": "function"
    },
    {
      "inputs": [
        {
          "internalType": "address",
          "name": "_prizeNft",
          "type": "address"
        }
      ],
      "name": "setPrizeNft",
      "outputs": [],
      "stateMutability": "nonpayable",
      "type": "function"
    },
    {
      "inputs": [
        {
          "internalType": "uint256",
          "name": "_roundId",
          "type": "uint256"
        },
        {
          "internalType": "address",
          "name": "user",
          "type": "address"
        }
      ],
      "name": "ticketsOf",
      "outputs": [
        {
          "internalType": "uint32",
          "name": "",
          "type": "uint32"
        }
      ],
      "stateMutability": "view",
      "type": "function"
    },
    {
      "inputs": [
        {
          "internalType": "address",
          "name": "newOwner",
          "type": "address"
        }
      ],
      "name": "transferOwnership",
      "outputs": [],
      "stateMutability": "nonpayable",
      "type": "function"
    },
    {
      "inputs": [
        {
          "internalType": "address",
          "name": "newImplementation",
          "type": "address"
        }
      ],
      "name": "upgradeTo",
      "outputs": [],
      "stateMutability": "nonpayable",
      "type": "function"
    },
    {
      "inputs": [
        {
          "internalType": "address",
          "name": "newImplementation",
          "type": "address"
        },
        {
          "internalType": "bytes",
          "name": "data",
          "type": "bytes"
        }
      ],
      "name": "upgradeToAndCall",
      "outputs": [],
      "stateMutability": "payable",
      "type": "function"
    },
    {
      "inputs": [],
      "name": "usdt",
      "outputs": [
        {
          "internalType": "contract IERC20",
          "name": "",
          "type": "address"
        }
      ],
      "stateMutability": "view",
      "type": "function"
    },
    {
      "inputs": [
        {
          "internalType": "uint256",
          "name": "_roundId",
          "type": "uint256"
        }
      ],
      "name": "winnersOf",
      "outputs": [
        {
          "internalType": "address[]",
          "name": "",
          "type": "address[]"
        }
      ],
      "stateMutability": "view",
      "type": "function"
    },
    {
      "inputs": [
        {
          "internalType": "address",
          "name": "token",
          "type": "address"
        },
        {
          "internalType": "address",
          "name": "to",
          "type": "address"
        },
        {
          "internalType": "uint256",
          "name": "amount",
          "type": "uint256"
        }
      ],
      "name": "withdraw",
      "outputs": [],
      "stateMutability": "nonpayable",
      "type": "function"
    }
  ],
  "bytecode": "0x60a08060405234610031573060805261312b90816100378239608051818181611aa201528181611ba20152611e140152f35b600080fdfe608080604052600436101561001357600080fd5b60003560e01c90816309c79735146127fe575080631459457a146125f55780631fccf672146125cc578063234d0001146123a357806324214191146123855780632f48ab7d1461235c5780633423ce821461207b5780633659cfe614611df05780634f1ef28614611b5357806352d1902d14611a8f5780635ee49b8f1461193e57806360b2a56a14610cc357806371533fe514610c9a5780637509f58614610c25578063866b1be314610bd45780638da5cb5b14610bab578063958d9c4614610648578063cf456ae7146105b0578063d9caed12146103df578063df5cf2b114610339578063e200c857146102ac578063e6c81c7214610283578063e84daf0a1461025a578063f2fde38b146101b0578063f46eccc4146101715763f71492201461013d57600080fd5b3461016c57600036600319011261016c57602060405173c0ffee98ad1434acbdb894bbb752e138c1006fab8152f35b600080fd5b3461016c57602036600319011261016c576001600160a01b03610192612860565b1660005260a0602052602060ff604060002054166040519015158152f35b3461016c57602036600319011261016c576101c9612860565b6097546001600160a01b03808216926101e3338514612b8e565b169182156102225782907f8be0079c531659141344cd1fd0a4f28419497f9722a3daafe3b4186f6b6457e0600080a36001600160a01b03191617609755005b60405162461bcd60e51b815260206004820152601060248201526f27bbb732b91d103d32b9379030b2323960811b6044820152606490fd5b3461016c57600036600319011261016c576099546040516001600160a01b039091168152602090f35b3461016c57600036600319011261016c576098546040516001600160a01b039091168152602090f35b3461016c5760208060031936011261016c57600435600052609e8152600660406000200190604051808383829554938481520190600052836000209260005b8582821061031a57505050610302925003836128a4565b610316604051928284938452830190612917565b0390f35b85546001600160a01b03168452600195860195889550930192016102eb565b3461016c57602036600319011261016c5761012060043580600052609e60205260ff60406000206007810154906103718383166129a0565b600181015490600281015460038201549063ffffffff80600985015416916005600486015495015495604051998a5260208a0152604089015282166060880152608087015260018060a01b039060201c1660a086015260c085015260e084015260081c161515610100820152f35b3461016c57606036600319011261016c576103f8612860565b61040061284a565b6044359060018060a01b0361041a81609754163314612b8e565b808216938415610575578315610538571691604051916370a0823160e01b83523060048401526020928381602481885afa90811561052c576000916104ff575b5084600052609f845260406000205480821191826104eb575b5050156104b157906104a8817f9b1bfa7fa9ee420a16e124f794c35ac9f90472acc99140eb2f6447c714cad8eb949386612d80565b604051908152a3005b60405162461bcd60e51b815260048101849052601260248201527115da5d1a191c985dce881c995cd95c9d995960721b6044820152606490fd5b6104f59250612b69565b8211158680610473565b90508381813d8311610525575b61051681836128a4565b8101031261016c57518661045a565b503d61050c565b6040513d6000823e3d90fd5b60405162461bcd60e51b815260206004820152601560248201527415da5d1a191c985dce881e995c9bc8185b5bdd5b9d605a1b6044820152606490fd5b60405162461bcd60e51b81526020600482015260136024820152722bb4ba34323930bb9d103d32b9379030b2323960691b6044820152606490fd5b3461016c57604036600319011261016c576105c9612860565b6024359081151580920361016c576097546001600160a01b0391906105f19083163314612b8e565b1680156106175760005260a060205260406000209060ff80198354169116179055600080f35b60405162461bcd60e51b81526020600482015260096024820152682d32b9379030b2323960b91b6044820152606490fd5b3461016c5761010036600319011261016c5760443563ffffffff8116810361016c576064356001600160a01b038116900361016c5760843560ff8116810361016c5760e4356001600160401b03811161016c573660238201121561016c576106ba9036906024816004013591016128e0565b9060018060a01b036097541633141580610b92575b610b8157602435151580610b72575b15610b38574260043510610afb576064356001600160a01b031615610ac157600360ff821611610a7c57600360ff8216141580610a72575b610a1557609c546001600160a01b0390811660643590911603610996575b61073f609d54612bdb565b9283609d5583600052609e6020526040600020938455600435600185015561076b602435600435612bce565b6002850155600384015463ffffffff640100000000600160c01b0360643560201b169216906001600160401b0360c01b161717600384015560a435600484015560c435600584015560ff60078401918119926001848254161790551690600c8401541617600c8301558051906001600160401b0382116109805781906107f4600d850154612bea565b601f811161092d575b50602090601f83116001146108bb576000926108b0575b50508160011b916000199060031b1c191617600d8201555b7f452eb14dda7e8bf2507d69049b0adbe025e32286bd6398252780fc0edaefbf1a60e082549260018101549060028101549063ffffffff600482015460038301549060ff600c600586015495015416946040519687526020870152604086015260018060a01b038160201c16606086015216608084015260a083015260c0820152a2005b015190508380610814565b9250600d84016000526020600020906000935b601f1984168510610912576001945083601f198116106108f9575b505050811b01600d82015561082c565b015160001960f88460031b161c191690558380806108e9565b818101518355602094850194600190930192909101906108ce565b909150600d84016000526020600020601f840160051c810160208510610979575b90849392915b601f830160051c8201811061096a5750506107fd565b60008155859450600101610954565b508061094e565b634e487b7160e01b600052604160045260246000fd5b6040516323b872dd60e01b602082015233602482015230604482015260a4356064820152606481528060a08101106001600160401b0360a083011117610980578060a06109e99201604052606435612f09565b60018060a01b0360643516600052609f6020526040600020610a0e60a4358254612bce565b9055610734565b60405162461bcd60e51b815260206004820152602f60248201527f526166666c653a2030205265776172647320666f72204469676974616c20436160448201526e73682f4d696c657320526166666c6560881b6064820152608490fd5b5060a43515610716565b60405162461bcd60e51b815260206004820152601860248201527f526166666c653a207479706520756e737570706f7274656400000000000000006044820152606490fd5b60405162461bcd60e51b81526020600482015260126024820152712930b33336329d103d32b937903a37b5b2b760711b6044820152606490fd5b60405162461bcd60e51b8152602060048201526015602482015274149859999b194e881cdd185c9d081a5b881c185cdd605a1b6044820152606490fd5b60405162461bcd60e51b8152602060048201526012602482015271526166666c653a2062616420706172616d7360701b6044820152606490fd5b5063ffffffff831615156106de565b6040516282b42960e81b8152600490fd5b503360005260a060205260ff60406000205416156106cf565b3461016c57600036600319011261016c576097546040516001600160a01b039091168152602090f35b3461016c57602036600319011261016c57610bed612860565b6097546001600160a01b039190610c079083163314612b8e565b166bffffffffffffffffffffffff60a01b6098541617609855600080f35b3461016c5760208060031936011261016c57600435600052609e8152600b60406000200190604051808383829554938481520190600052836000209260005b85828210610c7b57505050610302925003836128a4565b85546001600160a01b0316845260019586019588955093019201610c64565b3461016c57600036600319011261016c57609c546040516001600160a01b039091168152602090f35b3461016c57602036600319011261016c57610cdc612c84565b600435600052609e602052610cf76040600020541515612954565b600435600052609e602052604060002060ff6007820154610d19828216612a0a565b60081c16611901576002810154421180156118e7575b156118ad57600381015463ffffffff8116601481029080820460141490151715611131576064900463ffffffff6009840154161061186857600a82015480151590816117f1575b50156117ac57609c546001600160a01b0360209290921c821691168103611786575b50600c8101805460ff1680610f8357505063ffffffff600982015416600a820154604051916324cbbfc160e01b8352600483015260006024830152604482015260208160648173c0ffee98ad1434acbdb894bbb752e138c1006fab5afa90811561052c57610e169163ffffffff91600091610f54575b501682612e53565b90610e2482600b8301612a67565b60078101805461ffff19166101001790556003810154609c5460209190911c6001600160a01b0390811691168103610f1957506099546004820154906001600160a01b0316803b1561016c576040516340c10f1960e01b81526001600160a01b038516600482015260248101929092526000908290604490829084905af1801561052c577ffee5b04775e1cd2311ed22cd00f5d2403aff38ff6f71d6d393f51854ed6bc98692610eff92600492610f0a575b505b0154604080516001600160a01b039095168552602085019190915260043593918291820190565b0390a25b6001606555005b610f1390612876565b85610ed6565b600482610f4f610eff9386847ffee5b04775e1cd2311ed22cd00f5d2403aff38ff6f71d6d393f51854ed6bc98697015491612d80565b610ed8565b610f76915060203d602011610f7c575b610f6e81836128a4565b810190612cda565b84610e0e565b503d610f64565b6001811490811561177b575b501561158b575460ff16600181036114b55750604051608081018181106001600160401b03821117610980576040526003815260603660208301376014610fed826032610fdb82612d0d565b52601e610fe782612d1a565b52612d2a565b525b610ff98151612d4e565b6000805b83518083109081611498575b50156111475763ffffffff60098601541660018201821161113157600a860154604051916324cbbfc160e01b83526004830152600183016024830152604482015260208160648173c0ffee98ad1434acbdb894bbb752e138c1006fab5afa90811561052c576110889163ffffffff91600091611112575b501686612e53565b6000805b8481106110e3575b50156110aa575b506110a590612bdb565b610ffd565b90916110a5916110dc91906110d7906001600160a01b0381166110cd8489612d3a565b52600b8901612a67565b612bdb565b919061109b565b6001600160a01b03838116906110f98389612d3a565b5116146111085760010161108c565b5050600187611094565b61112b915060203d602011610f7c57610f6e81836128a4565b88611080565b634e487b7160e01b600052601160045260246000fd5b5090928115611453576000805b83811061142d575061116583612cf6565b9361117360405195866128a4565b83855261117f84612cf6565b601f1901366020870137600090600185036113765750505060048101546111a584612d0d565b525b60078101805461ffff19166101001790556003810154609c546001600160a01b0390811660209290921c1603611326575060005b8181106112a157505b6111ed81612d4e565b9060005b81811061127957505090915061121260405191604083526040830190612917565b81810360208301526020808451928381520193019060005b81811061126357505050807f6f2086a232e2eb114d9bb965c9edf2040c10252db76bd117307631c4bfc82b4091600435930390a2610f03565b825185526020948501949092019160010161122a565b6001906001600160a01b0361128e8288612d3a565b511661129a8286612d3a565b52016111f1565b6099546001600160a01b0390811691906112bb8287612d3a565b51166112c78286612d3a565b51833b1561016c576040516340c10f1960e01b81526001600160a01b039290921660048301526024820152916000908390604490829084905af191821561052c57600192611317575b50016111db565b61132090612876565b85611310565b60005b8281106113375750506111e4565b6003820154600191906113709060201c6001600160a01b039081169061135d848a612d3a565b51166113698489612d3a565b5191612d80565b01611329565b9091939294956000936004870154935b6000198201828111611131578610156114005761ffff6113b2816113aa8988612d3a565b5116876129df565b91818916156113ea576001926113e2928a1690046113d0898d612d3a565b526113db888c612d3a565b5190612bce565b950194611386565b634e487b7160e01b600052601260045260246000fd5b925094509594925061141191612b69565b6000198301838111611131576114279085612d3a565b526111a7565b9061ffff90818061143e8589612d3a565b51169116019081116111315790600101611154565b60405162461bcd60e51b815260206004820152601960248201527f526166666c653a206e6f20756e697175652077696e6e657273000000000000006044820152606490fd5b80915060041b908082046010149015171561113157811086611009565b6002036115465760405160c081018181106001600160401b03821117610980576040526005815260a03660208301378060326114f082612d0d565b5260196114fc82612d1a565b52600f61150882612d2a565b5280516003101561153057600a60808201528051600410156115305760a0600a910152610fef565b634e487b7160e01b600052603260045260246000fd5b60405162461bcd60e51b815260206004820152601a60248201527f526166666c653a20696e76616c696420726166666c65547970650000000000006044820152606490fd5b5063ffffffff600982015416600a820154604051916324cbbfc160e01b8352600483015260006024830152604482015260208160648173c0ffee98ad1434acbdb894bbb752e138c1006fab5afa90811561052c576115f89163ffffffff91600091610f5457501682612e53565b61160581600b8401612a67565b60078201805461ffff19166101001790556098546040516303a9a7b360e41b81526001600160a01b039283166004808301829052356001600160401b0316602483015260006044830181905260806064840152600d909501805491959294939093169284929161167481612bea565b9182608486015260a4916001811690816000146117525750600114611714575b505050918160008160209503925af1801561052c576116e9575b50604051908152600160208201527ffee5b04775e1cd2311ed22cd00f5d2403aff38ff6f71d6d393f51854ed6bc986604060043592a2610f03565b602090813d831161170d575b6116ff81836128a4565b8101031261016c57816116ae565b503d6116f5565b6000908152602081209093505b82841061173957505050810160a40181600081611694565b8054848801830152869450602090930192600101611721565b60ff191660a48088019190915293151560051b8601909301935084925060009150829050611694565b600291501483610f8f565b600482015490600052609f6020526117a46040600020918254612b69565b905581610d98565b60405162461bcd60e51b815260206004820152601a60248201527f526166666c653a2072616e646f6d6e6573732070656e64696e670000000000006044820152606490fd5b9050604051906326f21bfb60e21b8252600482015260208160248173c0ffee98ad1434acbdb894bbb752e138c1006fab5afa90811561052c57600091611839575b5083610d76565b61185b915060203d602011611861575b61185381836128a4565b810190612b76565b83611832565b503d611849565b60405162461bcd60e51b815260206004820152601960248201527f526166666c653a207468726573686f6c64206e6f74206d6574000000000000006044820152606490fd5b60405162461bcd60e51b8152602060048201526012602482015271149859999b194e881d5b999a5b9a5cda195960721b6044820152606490fd5b5063ffffffff806009830154169060038301541614610d2f565b60405162461bcd60e51b81526020600482015260156024820152742930b33336329d1030b63932b0b23c90323930bbb760591b6044820152606490fd5b60208060031936011261016c576004359081600052609e81526119676040600020541515612954565b81600052609e8152600a604060002001908154611a4b576040516334cd994560e11b815281816004813473c0ffee98ad1434acbdb894bbb752e138c1006fab5af190811561052c57600091611a1e575b504383553481106119f0575b507f3d94fecedaa4f90b8bd459797adb95f5bb11426025c5541390d9ccc1ad1b60a19154604051908152a2005b600080806119ff819434612b69565b818115611a15575b3390f11561052c57836119c3565b506108fc611a07565b90508181813d8311611a44575b611a3581836128a4565b8101031261016c5751846119b7565b503d611a2b565b6064906040519062461bcd60e51b82526004820152601c60248201527f526166666c653a2072616e646f6d6e65737320726571756573746564000000006044820152fd5b3461016c57600036600319011261016c577f00000000000000000000000000000000000000000000000000000000000000006001600160a01b03163003611ae85760206040516000805160206130ff8339815191528152f35b60405162461bcd60e51b815260206004820152603860248201527f555550535570677261646561626c653a206d757374206e6f742062652063616c60448201527f6c6564207468726f7567682064656c656761746563616c6c00000000000000006064820152608490fd5b604036600319011261016c57611b67612860565b6024356001600160401b03811161016c573660238201121561016c57611b979036906024816004013591016128e0565b906001600160a01b037f0000000000000000000000000000000000000000000000000000000000000000811690611bd030831415612aa7565b611bed6000805160206130ff833981519152928284541614612b08565b611bfc81609754163314612b8e565b7f4910fdfa16fed3260ed0e7147f7cc6da11a60208b5b9406d12a635614ffd91435460ff1615611c34575050611c329150612dc3565b005b6040516352d1902d60e01b81526020939291831691908481600481865afa60009181611dc1575b50611cbc5760405162461bcd60e51b815260048101869052602e60248201527f45524331393637557067726164653a206e657720696d706c656d656e7461746960448201526d6f6e206973206e6f74205555505360901b6064820152608490fd5b03611d6a57611cca82612dc3565b7fbc7cd75a20ee27fd9adebab32041f755214dbc6bffa90cc0225b39da2e5c2d3b600080a2825115801590611d62575b611d0057005b600080611c329460405194611d1486612889565b602786527f416464726573733a206c6f772d6c6576656c2064656c65676174652063616c6c81870152660819985a5b195960ca1b604087015281519101845af4611d5c612ffa565b9161302a565b506001611cfa565b60405162461bcd60e51b815260048101849052602960248201527f45524331393637557067726164653a20756e737570706f727465642070726f786044820152681a58589b195555525160ba1b6064820152608490fd5b9091508581813d8311611de9575b611dd981836128a4565b8101031261016c57519087611c5b565b503d611dcf565b3461016c5760208060031936011261016c57611e0a612860565b6001600160a01b037f000000000000000000000000000000000000000000000000000000000000000081169290611e4330851415612aa7565b611e606000805160206130ff833981519152948286541614612b08565b611e6f81609754163314612b8e565b60405193828501918583106001600160401b0384111761098057826040526000865260ff7f4910fdfa16fed3260ed0e7147f7cc6da11a60208b5b9406d12a635614ffd91435416600014611ecb5750505050611c329150612dc3565b84939416906040516352d1902d60e01b81528581600481865afa6000918161204c575b50611f4f5760405162461bcd60e51b815260048101879052602e60248201527f45524331393637557067726164653a206e657720696d706c656d656e7461746960448201526d6f6e206973206e6f74205555505360901b6064820152608490fd5b03611ff557611f5d83612dc3565b7fbc7cd75a20ee27fd9adebab32041f755214dbc6bffa90cc0225b39da2e5c2d3b600080a2835115801590611fed575b611f9357005b60008091611c32957f416464726573733a206c6f772d6c6576656c2064656c65676174652063616c6c60405196611fc988612889565b60278852870152660819985a5b195960ca1b60408701525190845af4611d5c612ffa565b506000611f8d565b60405162461bcd60e51b815260048101859052602960248201527f45524331393637557067726164653a20756e737570706f727465642070726f786044820152681a58589b195555525160ba1b6064820152608490fd5b9091508681813d8311612074575b61206481836128a4565b8101031261016c57519088611eee565b503d61205a565b3461016c57604036600319011261016c576004356024359063ffffffff918281169283820361016c5782600052602090609e82526120bf6040600020541515612954565b6120c7612c84565b83600052609e82526040600020926120e560ff600786015416612a0a565b60018401544210158061234e575b1561230957600984019161210a8282855416612a4f565b81806003880154169116116122c4576121278760058701546129df565b9460018060a01b03609954166040516370a0823160e01b81523360048201528681602481855afa801561052c578891600091612293575b501061224e57803b1561016c57604051632770a7eb60e21b815233600482015260248101979097526000908790604490829084905af195861561052c577f338e0cd33c4e120afcd73f43f082fd8940ed67ac35180d278d2eb4f3ed51d92e9661223f575b5060088101903360005281865282604060002054161561222b575b50336000528452604060002090815491816121fa85828616612a4f565b1663ffffffff19809416179055612215845493828516612a4f565b1691161790556040519384523393a36001606555005b612239906006339101612a67565b886121dd565b61224890612876565b886121c2565b60405162461bcd60e51b815260048101879052601b60248201527f526166666c653a20696e73756666696369656e7420706f696e747300000000006044820152606490fd5b809250888092503d83116122bd575b6122ac81836128a4565b8101031261016c578790518b61215e565b503d6122a2565b60405162461bcd60e51b815260048101859052601b60248201527f526166666c653a206d6178207469636b657473207265616368656400000000006044820152606490fd5b60405162461bcd60e51b815260048101849052601860248201527f526166666c653a206e6f7420696e2074696d656672616d6500000000000000006044820152606490fd5b5060028401544211156120f3565b3461016c57600036600319011261016c57609b546040516001600160a01b039091168152602090f35b3461016c57600036600319011261016c576020609d54604051908152f35b3461016c5760208060031936011261016c576004356123c0612c84565b80600052609e82526123d86040600020541515612954565b80600052609e825260406000209060078201928354936123fa60ff86166129a0565b60028401544211156125935763ffffffff9060648260098701541602958287169687036111315760039683600388015416906014820291808304601414901517156111315710156125565760ff1916905591926008810192906006810160005b81548110156125295761246d81836129f2565b90546001600160a01b03918a1b1c8116600081815288885260409020549192918616806124a1575b5050600191500161245a565b60058601546124af916129df565b9260995416803b1561016c576040516340c10f1960e01b81526001600160a01b038316600482015260248101949094526000908490604490829084905af192831561052c5760019361251a575b50600052868652604060002063ffffffff1981541690558980612495565b61252390612876565b8a6124fc565b867f2a7d48246875b5f17dc9944def25fc8fe90e524ca2165e290ffdc0e44a0bf8b6600080a26001606555005b60405162461bcd60e51b8152600481018590526015602482015274149859999b194e881d1a1c995cda1bdb19081b595d605a1b6044820152606490fd5b60405162461bcd60e51b8152600481018390526011602482015270149859999b194e881b9bdd08195b991959607a1b6044820152606490fd5b3461016c57600036600319011261016c57609a546040516001600160a01b039091168152602090f35b3461016c5760a036600319011261016c5761260e612860565b61261661284a565b6001600160a01b0390604435828116919082900361016c5760643583811680910361016c576084359284841680940361016c576000549460ff8660081c1615958680976127f1575b80156127da575b1561277e5760ff1981166001176000558661276c575b5080600054976126a260ff8a60081c1661269481612c24565b61269d81612c24565b612c24565b600160655516938415612732576bffffffffffffffffffffffff60a01b948086609954161760995585609c541617609c551683609a541617609a5582609b541617609b5581609854161760985560975416176097556126fd57005b61ff0019166000557f7f26b83ff96e1f2b6a682f133852f6798a09c465da95921460cefb3847402498602060405160018152a1005b60405162461bcd60e51b8152602060048201526012602482015271696e76616c6964204d696e69506f696e747360701b6044820152606490fd5b61ffff1916610101176000558761267b565b60405162461bcd60e51b815260206004820152602e60248201527f496e697469616c697a61626c653a20636f6e747261637420697320616c72656160448201526d191e481a5b9a5d1a585b1a5e995960921b6064820152608490fd5b50303b1580156126655750600160ff821614612665565b50600160ff82161061265e565b3461016c57604036600319011261016c5760209061281a61284a565b600435600052609e835260086040600020019060018060a01b0316600052825263ffffffff604060002054168152f35b602435906001600160a01b038216820361016c57565b600435906001600160a01b038216820361016c57565b6001600160401b03811161098057604052565b606081019081106001600160401b0382111761098057604052565b90601f801991011681019081106001600160401b0382111761098057604052565b6001600160401b03811161098057601f01601f191660200190565b9291926128ec826128c5565b916128fa60405193846128a4565b82948184528183011161016c578281602093846000960137010152565b90815180825260208080930193019160005b828110612937575050505090565b83516001600160a01b031685529381019392810192600101612929565b1561295b57565b60405162461bcd60e51b815260206004820152601c60248201527f526166666c653a20726f756e6420646f6573206e6f74206578697374000000006044820152606490fd5b156129a757565b60405162461bcd60e51b815260206004820152601060248201526f526166666c653a20696e61637469766560801b6044820152606490fd5b8181029291811591840414171561113157565b80548210156115305760005260206000200190600090565b15612a1157565b60405162461bcd60e51b8152602060048201526016602482015275149859999b194e881a5b9858dd1a5d99481c9bdd5b9960521b6044820152606490fd5b91909163ffffffff8080941691160191821161113157565b80546801000000000000000081101561098057612a89916001820181556129f2565b60018060a09493941b038084549260031b9316831b921b1916179055565b15612aae57565b60405162461bcd60e51b815260206004820152602c60248201527f46756e6374696f6e206d7573742062652063616c6c6564207468726f7567682060448201526b19195b1959d85d1958d85b1b60a21b6064820152608490fd5b15612b0f57565b60405162461bcd60e51b815260206004820152602c60248201527f46756e6374696f6e206d7573742062652063616c6c6564207468726f7567682060448201526b6163746976652070726f787960a01b6064820152608490fd5b9190820391821161113157565b9081602091031261016c5751801515810361016c5790565b15612b9557565b60405162461bcd60e51b81526020600482015260116024820152702930b33336329d103737ba1037bbb732b960791b6044820152606490fd5b9190820180921161113157565b60001981146111315760010190565b90600182811c92168015612c1a575b6020831014612c0457565b634e487b7160e01b600052602260045260246000fd5b91607f1691612bf9565b15612c2b57565b60405162461bcd60e51b815260206004820152602b60248201527f496e697469616c697a61626c653a20636f6e7472616374206973206e6f74206960448201526a6e697469616c697a696e6760a81b6064820152608490fd5b600260655414612c95576002606555565b60405162461bcd60e51b815260206004820152601f60248201527f5265656e7472616e637947756172643a207265656e7472616e742063616c6c006044820152606490fd5b9081602091031261016c575163ffffffff8116810361016c5790565b6001600160401b0381116109805760051b60200190565b8051156115305760200190565b8051600110156115305760400190565b8051600210156115305760600190565b80518210156115305760209160051b010190565b90612d5882612cf6565b612d6560405191826128a4565b8281528092612d76601f1991612cf6565b0190602036910137565b60405163a9059cbb60e01b60208201526001600160a01b03929092166024830152604480830193909352918152612dc191612dbc6064836128a4565b612f09565b565b803b15612df8576000805160206130ff83398151915280546001600160a01b0319166001600160a01b03909216919091179055565b60405162461bcd60e51b815260206004820152602d60248201527f455243313936373a206e657720696d706c656d656e746174696f6e206973206e60448201526c1bdd08184818dbdb9d1c9858dd609a1b6064820152608490fd5b9091600090815b600684018054841015612ecb5783612e71916129f2565b905460039190911b1c6001600160a01b0316600081815260088601602052604090205463ffffffff169190612ea68383612bce565b8710612ec15750600191612eb991612bce565b920191612e5a565b9450505092505090565b60405162461bcd60e51b8152602060048201526016602482015275526166666c653a20696e646578206f766572666c6f7760501b6044820152606490fd5b60408051908101916001600160a01b03166001600160401b0383118284101761098057612f72926040526000806020958685527f5361666545524332303a206c6f772d6c6576656c2063616c6c206661696c656487860152868151910182855af1611d5c612ffa565b805190828215928315612fe2575b50505015612f8b5750565b6084906040519062461bcd60e51b82526004820152602a60248201527f5361666545524332303a204552433230206f7065726174696f6e20646964206e6044820152691bdd081cdd58d8d9595960b21b6064820152fd5b612ff29350820181019101612b76565b388281612f80565b3d15613025573d9061300b826128c5565b9161301960405193846128a4565b82523d6000602084013e565b606090565b9192901561308c575081511561303e575090565b3b156130475790565b60405162461bcd60e51b815260206004820152601d60248201527f416464726573733a2063616c6c20746f206e6f6e2d636f6e74726163740000006044820152606490fd5b82519091501561309f5750805190602001fd5b6040519062461bcd60e51b82528160208060048301528251908160248401526000935b8285106130e5575050604492506000838284010152601f80199101168101030190fd5b84810182015186860160440152938101938593506130c256fe360894a13ba1a3210667c828492db98dca3e2076cc3735a920a3ca505d382bbca164736f6c6343000818000a",
  "linkReferences": {},
  "deployedLinkReferences": {}
}